{
  "_format": "hh-sol-artifact-1",
  "contractName": "NFT",
  "sourceName": "contracts/nft.sol",
  "abi": [
    {
      "inputs": [],
      "stateMutability": "nonpayable",
      "type": "constructor"
    },
    {
      "anonymous": false,
      "inputs": [
        {
          "indexed": true,
          "internalType": "address",
          "name": "owner",
          "type": "address"
        },
        {
          "indexed": true,
          "internalType": "address",
          "name": "approved",
          "type": "address"
        },
        {
          "indexed": true,
          "internalType": "uint256",
          "name": "tokenId",
          "type": "uint256"
        }
      ],
      "name": "Approval",
      "type": "event"
    },
    {
      "anonymous": false,
      "inputs": [
        {
          "indexed": true,
          "internalType": "address",
          "name": "owner",
          "type": "address"
        },
        {
          "indexed": true,
          "internalType": "address",
          "name": "operator",
          "type": "address"
        },
        {
          "indexed": false,
          "internalType": "bool",
          "name": "approved",
          "type": "bool"
        }
      ],
      "name": "ApprovalForAll",
      "type": "event"
    },
    {
      "anonymous": false,
      "inputs": [
        {
          "indexed": true,
          "internalType": "address",
          "name": "previousOwner",
          "type": "address"
        },
        {
          "indexed": true,
          "internalType": "address",
          "name": "newOwner",
          "type": "address"
        }
      ],
      "name": "OwnershipTransferred",
      "type": "event"
    },
    {
      "anonymous": false,
      "inputs": [
        {
          "indexed": true,
          "internalType": "address",
          "name": "from",
          "type": "address"
        },
        {
          "indexed": true,
          "internalType": "address",
          "name": "to",
          "type": "address"
        },
        {
          "indexed": true,
          "internalType": "uint256",
          "name": "tokenId",
          "type": "uint256"
        }
      ],
      "name": "Transfer",
      "type": "event"
    },
    {
      "inputs": [
        {
          "internalType": "address",
          "name": "to",
          "type": "address"
        },
        {
          "internalType": "uint256",
          "name": "tokenId",
          "type": "uint256"
        }
      ],
      "name": "approve",
      "outputs": [],
      "stateMutability": "nonpayable",
      "type": "function"
    },
    {
      "inputs": [
        {
          "internalType": "address",
          "name": "owner",
          "type": "address"
        }
      ],
      "name": "balanceOf",
      "outputs": [
        {
          "internalType": "uint256",
          "name": "",
          "type": "uint256"
        }
      ],
      "stateMutability": "view",
      "type": "function"
    },
    {
      "inputs": [
        {
          "internalType": "uint256",
          "name": "tokenId",
          "type": "uint256"
        }
      ],
      "name": "burn",
      "outputs": [],
      "stateMutability": "nonpayable",
      "type": "function"
    },
    {
      "inputs": [
        {
          "internalType": "uint256",
          "name": "tokenId",
          "type": "uint256"
        }
      ],
      "name": "getApproved",
      "outputs": [
        {
          "internalType": "address",
          "name": "",
          "type": "address"
        }
      ],
      "stateMutability": "view",
      "type": "function"
    },
    {
      "inputs": [
        {
          "internalType": "address",
          "name": "owner",
          "type": "address"
        },
        {
          "internalType": "address",
          "name": "operator",
          "type": "address"
        }
      ],
      "name": "isApprovedForAll",
      "outputs": [
        {
          "internalType": "bool",
          "name": "",
          "type": "bool"
        }
      ],
      "stateMutability": "view",
      "type": "function"
    },
    {
      "inputs": [],
      "name": "name",
      "outputs": [
        {
          "internalType": "string",
          "name": "",
          "type": "string"
        }
      ],
      "stateMutability": "view",
      "type": "function"
    },
    {
      "inputs": [],
      "name": "owner",
      "outputs": [
        {
          "internalType": "address",
          "name": "",
          "type": "address"
        }
      ],
      "stateMutability": "view",
      "type": "function"
    },
    {
      "inputs": [
        {
          "internalType": "uint256",
          "name": "tokenId",
          "type": "uint256"
        }
      ],
      "name": "ownerOf",
      "outputs": [
        {
          "internalType": "address",
          "name": "",
          "type": "address"
        }
      ],
      "stateMutability": "view",
      "type": "function"
    },
    {
      "inputs": [],
      "name": "renounceOwnership",
      "outputs": [],
      "stateMutability": "nonpayable",
      "type": "function"
    },
    {
      "inputs": [
        {
          "internalType": "address",
          "name": "to",
          "type": "address"
        },
        {
          "internalType": "string",
          "name": "uri",
          "type": "string"
        }
      ],
      "name": "safeMint",
      "outputs": [],
      "stateMutability": "nonpayable",
      "type": "function"
    },
    {
      "inputs": [
        {
          "internalType": "address",
          "name": "from",
          "type": "address"
        },
        {
          "internalType": "address",
          "name": "to",
          "type": "address"
        },
        {
          "internalType": "uint256",
          "name": "tokenId",
          "type": "uint256"
        }
      ],
      "name": "safeTransferFrom",
      "outputs": [],
      "stateMutability": "nonpayable",
      "type": "function"
    },
    {
      "inputs": [
        {
          "internalType": "address",
          "name": "from",
          "type": "address"
        },
        {
          "internalType": "address",
          "name": "to",
          "type": "address"
        },
        {
          "internalType": "uint256",
          "name": "tokenId",
          "type": "uint256"
        },
        {
          "internalType": "bytes",
          "name": "_data",
          "type": "bytes"
        }
      ],
      "name": "safeTransferFrom",
      "outputs": [],
      "stateMutability": "nonpayable",
      "type": "function"
    },
    {
      "inputs": [
        {
          "internalType": "address",
          "name": "operator",
          "type": "address"
        },
        {
          "internalType": "bool",
          "name": "approved",
          "type": "bool"
        }
      ],
      "name": "setApprovalForAll",
      "outputs": [],
      "stateMutability": "nonpayable",
      "type": "function"
    },
    {
      "inputs": [
        {
          "internalType": "bytes4",
          "name": "interfaceId",
          "type": "bytes4"
        }
      ],
      "name": "supportsInterface",
      "outputs": [
        {
          "internalType": "bool",
          "name": "",
          "type": "bool"
        }
      ],
      "stateMutability": "view",
      "type": "function"
    },
    {
      "inputs": [],
      "name": "symbol",
      "outputs": [
        {
          "internalType": "string",
          "name": "",
          "type": "string"
        }
      ],
      "stateMutability": "view",
      "type": "function"
    },
    {
      "inputs": [
        {
          "internalType": "uint256",
          "name": "index",
          "type": "uint256"
        }
      ],
      "name": "tokenByIndex",
      "outputs": [
        {
          "internalType": "uint256",
          "name": "",
          "type": "uint256"
        }
      ],
      "stateMutability": "view",
      "type": "function"
    },
    {
      "inputs": [
        {
          "internalType": "address",
          "name": "owner",
          "type": "address"
        },
        {
          "internalType": "uint256",
          "name": "index",
          "type": "uint256"
        }
      ],
      "name": "tokenOfOwnerByIndex",
      "outputs": [
        {
          "internalType": "uint256",
          "name": "",
          "type": "uint256"
        }
      ],
      "stateMutability": "view",
      "type": "function"
    },
    {
      "inputs": [
        {
          "internalType": "uint256",
          "name": "tokenId",
          "type": "uint256"
        }
      ],
      "name": "tokenURI",
      "outputs": [
        {
          "internalType": "string",
          "name": "",
          "type": "string"
        }
      ],
      "stateMutability": "view",
      "type": "function"
    },
    {
      "inputs": [],
      "name": "totalSupply",
      "outputs": [
        {
          "internalType": "uint256",
          "name": "",
          "type": "uint256"
        }
      ],
      "stateMutability": "view",
      "type": "function"
    },
    {
      "inputs": [
        {
          "internalType": "address",
          "name": "from",
          "type": "address"
        },
        {
          "internalType": "address",
          "name": "to",
          "type": "address"
        },
        {
          "internalType": "uint256",
          "name": "tokenId",
          "type": "uint256"
        }
      ],
      "name": "transferFrom",
      "outputs": [],
      "stateMutability": "nonpayable",
      "type": "function"
    },
    {
      "inputs": [
        {
          "internalType": "address",
          "name": "newOwner",
          "type": "address"
        }
      ],
      "name": "transferOwnership",
      "outputs": [],
      "stateMutability": "nonpayable",
      "type": "function"
    }
  ],
  "bytecode": "0x60806040523480156200001157600080fd5b506040518060400160405280600581526020017f4d794e46540000000000000000000000000000000000000000000000000000008152506040518060400160405280600381526020017f4e46540000000000000000000000000000000000000000000000000000000000815250816000908051906020019062000096929190620001a6565b508060019080519060200190620000af929190620001a6565b505050620000d2620000c6620000d860201b60201c565b620000e060201b60201c565b620002bb565b600033905090565b6000600b60009054906101000a900473ffffffffffffffffffffffffffffffffffffffff16905081600b60006101000a81548173ffffffffffffffffffffffffffffffffffffffff021916908373ffffffffffffffffffffffffffffffffffffffff1602179055508173ffffffffffffffffffffffffffffffffffffffff168173ffffffffffffffffffffffffffffffffffffffff167f8be0079c531659141344cd1fd0a4f28419497f9722a3daafe3b4186f6b6457e060405160405180910390a35050565b828054620001b49062000256565b90600052602060002090601f016020900481019282620001d8576000855562000224565b82601f10620001f357805160ff191683800117855562000224565b8280016001018555821562000224579182015b828111156200022357825182559160200191906001019062000206565b5b50905062000233919062000237565b5090565b5b808211156200025257600081600090555060010162000238565b5090565b600060028204905060018216806200026f57607f821691505b602082108114156200028657620002856200028c565b5b50919050565b7f4e487b7100000000000000000000000000000000000000000000000000000000600052602260045260246000fd5b613b5e80620002cb6000396000f3fe608060405234801561001057600080fd5b50600436106101375760003560e01c80636352211e116100b8578063a22cb4651161007c578063a22cb4651461034e578063b88d4fde1461036a578063c87b56dd14610386578063d204c45e146103b6578063e985e9c5146103d2578063f2fde38b1461040257610137565b80636352211e146102a857806370a08231146102d8578063715018a6146103085780638da5cb5b1461031257806395d89b411461033057610137565b806323b872dd116100ff57806323b872dd146101f45780632f745c591461021057806342842e0e1461024057806342966c681461025c5780634f6ccce71461027857610137565b806301ffc9a71461013c57806306fdde031461016c578063081812fc1461018a578063095ea7b3146101ba57806318160ddd146101d6575b600080fd5b61015660048036038101906101519190612957565b61041e565b6040516101639190612e0c565b60405180910390f35b610174610430565b6040516101819190612e27565b60405180910390f35b6101a4600480360381019061019f91906129a9565b6104c2565b6040516101b19190612da5565b60405180910390f35b6101d460048036038101906101cf919061291b565b610547565b005b6101de61065f565b6040516101eb91906130e9565b60405180910390f35b61020e600480360381019061020991906127c1565b61066c565b005b61022a6004803603810190610225919061291b565b6106cc565b60405161023791906130e9565b60405180910390f35b61025a600480360381019061025591906127c1565b610771565b005b610276600480360381019061027191906129a9565b610791565b005b610292600480360381019061028d91906129a9565b6107ed565b60405161029f91906130e9565b60405180910390f35b6102c260048036038101906102bd91906129a9565b610884565b6040516102cf9190612da5565b60405180910390f35b6102f260048036038101906102ed919061275c565b610936565b6040516102ff91906130e9565b60405180910390f35b6103106109ee565b005b61031a610a76565b6040516103279190612da5565b60405180910390f35b610338610aa0565b6040516103459190612e27565b60405180910390f35b6103686004803603810190610363919061288b565b610b32565b005b610384600480360381019061037f9190612810565b610b48565b005b6103a0600480360381019061039b91906129a9565b610baa565b6040516103ad9190612e27565b60405180910390f35b6103d060048036038101906103cb91906128c7565b610bbc565b005b6103ec60048036038101906103e79190612785565b610c69565b6040516103f99190612e0c565b60405180910390f35b61041c6004803603810190610417919061275c565b610cfd565b005b600061042982610df5565b9050919050565b60606000805461043f9061333f565b80601f016020809104026020016040519081016040528092919081815260200182805461046b9061333f565b80156104b85780601f1061048d576101008083540402835291602001916104b8565b820191906000526020600020905b81548152906001019060200180831161049b57829003601f168201915b5050505050905090565b60006104cd82610e6f565b61050c576040517f08c379a000000000000000000000000000000000000000000000000000000000815260040161050390613009565b60405180910390fd5b6004600083815260200190815260200160002060009054906101000a900473ffffffffffffffffffffffffffffffffffffffff169050919050565b600061055282610884565b90508073ffffffffffffffffffffffffffffffffffffffff168373ffffffffffffffffffffffffffffffffffffffff1614156105c3576040517f08c379a00000000000000000000000000000000000000000000000000000000081526004016105ba90613069565b60405180910390fd5b8073ffffffffffffffffffffffffffffffffffffffff166105e2610edb565b73ffffffffffffffffffffffffffffffffffffffff16148061061157506106108161060b610edb565b610c69565b5b610650576040517f08c379a000000000000000000000000000000000000000000000000000000000815260040161064790612f49565b60405180910390fd5b61065a8383610ee3565b505050565b6000600880549050905090565b61067d610677610edb565b82610f9c565b6106bc576040517f08c379a00000000000000000000000000000000000000000000000000000000081526004016106b390613089565b60405180910390fd5b6106c783838361107a565b505050565b60006106d783610936565b8210610718576040517f08c379a000000000000000000000000000000000000000000000000000000000815260040161070f90612e49565b60405180910390fd5b600660008473ffffffffffffffffffffffffffffffffffffffff1673ffffffffffffffffffffffffffffffffffffffff168152602001908152602001600020600083815260200190815260200160002054905092915050565b61078c83838360405180602001604052806000815250610b48565b505050565b6107a261079c610edb565b82610f9c565b6107e1576040517f08c379a00000000000000000000000000000000000000000000000000000000081526004016107d8906130c9565b60405180910390fd5b6107ea816112e1565b50565b60006107f761065f565b8210610838576040517f08c379a000000000000000000000000000000000000000000000000000000000815260040161082f906130a9565b60405180910390fd5b60088281548110610872577f4e487b7100000000000000000000000000000000000000000000000000000000600052603260045260246000fd5b90600052602060002001549050919050565b6000806002600084815260200190815260200160002060009054906101000a900473ffffffffffffffffffffffffffffffffffffffff169050600073ffffffffffffffffffffffffffffffffffffffff168173ffffffffffffffffffffffffffffffffffffffff16141561092d576040517f08c379a000000000000000000000000000000000000000000000000000000000815260040161092490612f89565b60405180910390fd5b80915050919050565b60008073ffffffffffffffffffffffffffffffffffffffff168273ffffffffffffffffffffffffffffffffffffffff1614156109a7576040517f08c379a000000000000000000000000000000000000000000000000000000000815260040161099e90612f69565b60405180910390fd5b600360008373ffffffffffffffffffffffffffffffffffffffff1673ffffffffffffffffffffffffffffffffffffffff168152602001908152602001600020549050919050565b6109f6610edb565b73ffffffffffffffffffffffffffffffffffffffff16610a14610a76565b73ffffffffffffffffffffffffffffffffffffffff1614610a6a576040517f08c379a0000000000000000000000000000000000000000000000000000000008152600401610a6190613029565b60405180910390fd5b610a7460006112ed565b565b6000600b60009054906101000a900473ffffffffffffffffffffffffffffffffffffffff16905090565b606060018054610aaf9061333f565b80601f0160208091040260200160405190810160405280929190818152602001828054610adb9061333f565b8015610b285780601f10610afd57610100808354040283529160200191610b28565b820191906000526020600020905b815481529060010190602001808311610b0b57829003601f168201915b5050505050905090565b610b44610b3d610edb565b83836113b3565b5050565b610b59610b53610edb565b83610f9c565b610b98576040517f08c379a0000000000000000000000000000000000000000000000000000000008152600401610b8f90613089565b60405180910390fd5b610ba484848484611520565b50505050565b6060610bb58261157c565b9050919050565b610bc4610edb565b73ffffffffffffffffffffffffffffffffffffffff16610be2610a76565b73ffffffffffffffffffffffffffffffffffffffff1614610c38576040517f08c379a0000000000000000000000000000000000000000000000000000000008152600401610c2f90613029565b60405180910390fd5b6000610c44600c6116ce565b9050610c50600c6116dc565b610c5a83826116f2565b610c648183611710565b505050565b6000600560008473ffffffffffffffffffffffffffffffffffffffff1673ffffffffffffffffffffffffffffffffffffffff16815260200190815260200160002060008373ffffffffffffffffffffffffffffffffffffffff1673ffffffffffffffffffffffffffffffffffffffff16815260200190815260200160002060009054906101000a900460ff16905092915050565b610d05610edb565b73ffffffffffffffffffffffffffffffffffffffff16610d23610a76565b73ffffffffffffffffffffffffffffffffffffffff1614610d79576040517f08c379a0000000000000000000000000000000000000000000000000000000008152600401610d7090613029565b60405180910390fd5b600073ffffffffffffffffffffffffffffffffffffffff168173ffffffffffffffffffffffffffffffffffffffff161415610de9576040517f08c379a0000000000000000000000000000000000000000000000000000000008152600401610de090612e89565b60405180910390fd5b610df2816112ed565b50565b60007f780e9d63000000000000000000000000000000000000000000000000000000007bffffffffffffffffffffffffffffffffffffffffffffffffffffffff1916827bffffffffffffffffffffffffffffffffffffffffffffffffffffffff19161480610e685750610e6782611784565b5b9050919050565b60008073ffffffffffffffffffffffffffffffffffffffff166002600084815260200190815260200160002060009054906101000a900473ffffffffffffffffffffffffffffffffffffffff1673ffffffffffffffffffffffffffffffffffffffff1614159050919050565b600033905090565b816004600083815260200190815260200160002060006101000a81548173ffffffffffffffffffffffffffffffffffffffff021916908373ffffffffffffffffffffffffffffffffffffffff160217905550808273ffffffffffffffffffffffffffffffffffffffff16610f5683610884565b73ffffffffffffffffffffffffffffffffffffffff167f8c5be1e5ebec7d5bd14f71427d1e84f3dd0314c0f7b2291e5b200ac8c7c3b92560405160405180910390a45050565b6000610fa782610e6f565b610fe6576040517f08c379a0000000000000000000000000000000000000000000000000000000008152600401610fdd90612f29565b60405180910390fd5b6000610ff183610884565b90508073ffffffffffffffffffffffffffffffffffffffff168473ffffffffffffffffffffffffffffffffffffffff16148061106057508373ffffffffffffffffffffffffffffffffffffffff16611048846104c2565b73ffffffffffffffffffffffffffffffffffffffff16145b8061107157506110708185610c69565b5b91505092915050565b8273ffffffffffffffffffffffffffffffffffffffff1661109a82610884565b73ffffffffffffffffffffffffffffffffffffffff16146110f0576040517f08c379a00000000000000000000000000000000000000000000000000000000081526004016110e790612ea9565b60405180910390fd5b600073ffffffffffffffffffffffffffffffffffffffff168273ffffffffffffffffffffffffffffffffffffffff161415611160576040517f08c379a000000000000000000000000000000000000000000000000000000000815260040161115790612ee9565b60405180910390fd5b61116b838383611866565b611176600082610ee3565b6001600360008573ffffffffffffffffffffffffffffffffffffffff1673ffffffffffffffffffffffffffffffffffffffff16815260200190815260200160002060008282546111c69190613255565b925050819055506001600360008473ffffffffffffffffffffffffffffffffffffffff1673ffffffffffffffffffffffffffffffffffffffff168152602001908152602001600020600082825461121d91906131ce565b92505081905550816002600083815260200190815260200160002060006101000a81548173ffffffffffffffffffffffffffffffffffffffff021916908373ffffffffffffffffffffffffffffffffffffffff160217905550808273ffffffffffffffffffffffffffffffffffffffff168473ffffffffffffffffffffffffffffffffffffffff167fddf252ad1be2c89b69c2b068fc378daa952ba7f163c4a11628f55a4df523b3ef60405160405180910390a46112dc838383611876565b505050565b6112ea8161187b565b50565b6000600b60009054906101000a900473ffffffffffffffffffffffffffffffffffffffff16905081600b60006101000a81548173ffffffffffffffffffffffffffffffffffffffff021916908373ffffffffffffffffffffffffffffffffffffffff1602179055508173ffffffffffffffffffffffffffffffffffffffff168173ffffffffffffffffffffffffffffffffffffffff167f8be0079c531659141344cd1fd0a4f28419497f9722a3daafe3b4186f6b6457e060405160405180910390a35050565b8173ffffffffffffffffffffffffffffffffffffffff168373ffffffffffffffffffffffffffffffffffffffff161415611422576040517f08c379a000000000000000000000000000000000000000000000000000000000815260040161141990612f09565b60405180910390fd5b80600560008573ffffffffffffffffffffffffffffffffffffffff1673ffffffffffffffffffffffffffffffffffffffff16815260200190815260200160002060008473ffffffffffffffffffffffffffffffffffffffff1673ffffffffffffffffffffffffffffffffffffffff16815260200190815260200160002060006101000a81548160ff0219169083151502179055508173ffffffffffffffffffffffffffffffffffffffff168373ffffffffffffffffffffffffffffffffffffffff167f17307eab39ab6107e8899845ad3d59bd9653f200f220920489ca2b5937696c31836040516115139190612e0c565b60405180910390a3505050565b61152b84848461107a565b611537848484846118ce565b611576576040517f08c379a000000000000000000000000000000000000000000000000000000000815260040161156d90612e69565b60405180910390fd5b50505050565b606061158782610e6f565b6115c6576040517f08c379a00000000000000000000000000000000000000000000000000000000081526004016115bd90612fe9565b60405180910390fd5b6000600a600084815260200190815260200160002080546115e69061333f565b80601f01602080910402602001604051908101604052809291908181526020018280546116129061333f565b801561165f5780601f106116345761010080835404028352916020019161165f565b820191906000526020600020905b81548152906001019060200180831161164257829003601f168201915b505050505090506000611670611a65565b90506000815114156116865781925050506116c9565b6000825111156116bb5780826040516020016116a3929190612d81565b604051602081830303815290604052925050506116c9565b6116c484611a7c565b925050505b919050565b600081600001549050919050565b6001816000016000828254019250508190555050565b61170c828260405180602001604052806000815250611b23565b5050565b61171982610e6f565b611758576040517f08c379a000000000000000000000000000000000000000000000000000000000815260040161174f90612fa9565b60405180910390fd5b80600a6000848152602001908152602001600020908051906020019061177f929190612540565b505050565b60007f80ac58cd000000000000000000000000000000000000000000000000000000007bffffffffffffffffffffffffffffffffffffffffffffffffffffffff1916827bffffffffffffffffffffffffffffffffffffffffffffffffffffffff1916148061184f57507f5b5e139f000000000000000000000000000000000000000000000000000000007bffffffffffffffffffffffffffffffffffffffffffffffffffffffff1916827bffffffffffffffffffffffffffffffffffffffffffffffffffffffff1916145b8061185f575061185e82611b7e565b5b9050919050565b611871838383611be8565b505050565b505050565b61188481611cfc565b6000600a600083815260200190815260200160002080546118a49061333f565b9050146118cb57600a600082815260200190815260200160002060006118ca91906125c6565b5b50565b60006118ef8473ffffffffffffffffffffffffffffffffffffffff16611e19565b15611a58578373ffffffffffffffffffffffffffffffffffffffff1663150b7a02611918610edb565b8786866040518563ffffffff1660e01b815260040161193a9493929190612dc0565b602060405180830381600087803b15801561195457600080fd5b505af192505050801561198557506040513d601f19601f820116820180604052508101906119829190612980565b60015b611a08573d80600081146119b5576040519150601f19603f3d011682016040523d82523d6000602084013e6119ba565b606091505b50600081511415611a00576040517f08c379a00000000000000000000000000000000000000000000000000000000081526004016119f790612e69565b60405180910390fd5b805181602001fd5b63150b7a0260e01b7bffffffffffffffffffffffffffffffffffffffffffffffffffffffff1916817bffffffffffffffffffffffffffffffffffffffffffffffffffffffff191614915050611a5d565b600190505b949350505050565b606060405180602001604052806000815250905090565b6060611a8782610e6f565b611ac6576040517f08c379a0000000000000000000000000000000000000000000000000000000008152600401611abd90613049565b60405180910390fd5b6000611ad0611a65565b90506000815111611af05760405180602001604052806000815250611b1b565b80611afa84611e3c565b604051602001611b0b929190612d81565b6040516020818303038152906040525b915050919050565b611b2d8383611fe9565b611b3a60008484846118ce565b611b79576040517f08c379a0000000000000000000000000000000000000000000000000000000008152600401611b7090612e69565b60405180910390fd5b505050565b60007f01ffc9a7000000000000000000000000000000000000000000000000000000007bffffffffffffffffffffffffffffffffffffffffffffffffffffffff1916827bffffffffffffffffffffffffffffffffffffffffffffffffffffffff1916149050919050565b611bf38383836121c3565b600073ffffffffffffffffffffffffffffffffffffffff168373ffffffffffffffffffffffffffffffffffffffff161415611c3657611c31816121c8565b611c75565b8173ffffffffffffffffffffffffffffffffffffffff168373ffffffffffffffffffffffffffffffffffffffff1614611c7457611c738382612211565b5b5b600073ffffffffffffffffffffffffffffffffffffffff168273ffffffffffffffffffffffffffffffffffffffff161415611cb857611cb38161237e565b611cf7565b8273ffffffffffffffffffffffffffffffffffffffff168273ffffffffffffffffffffffffffffffffffffffff1614611cf657611cf582826124c1565b5b5b505050565b6000611d0782610884565b9050611d1581600084611866565b611d20600083610ee3565b6001600360008373ffffffffffffffffffffffffffffffffffffffff1673ffffffffffffffffffffffffffffffffffffffff1681526020019081526020016000206000828254611d709190613255565b925050819055506002600083815260200190815260200160002060006101000a81549073ffffffffffffffffffffffffffffffffffffffff021916905581600073ffffffffffffffffffffffffffffffffffffffff168273ffffffffffffffffffffffffffffffffffffffff167fddf252ad1be2c89b69c2b068fc378daa952ba7f163c4a11628f55a4df523b3ef60405160405180910390a4611e1581600084611876565b5050565b6000808273ffffffffffffffffffffffffffffffffffffffff163b119050919050565b60606000821415611e84576040518060400160405280600181526020017f30000000000000000000000000000000000000000000000000000000000000008152509050611fe4565b600082905060005b60008214611eb6578080611e9f906133a2565b915050600a82611eaf9190613224565b9150611e8c565b60008167ffffffffffffffff811115611ef8577f4e487b7100000000000000000000000000000000000000000000000000000000600052604160045260246000fd5b6040519080825280601f01601f191660200182016040528015611f2a5781602001600182028036833780820191505090505b5090505b60008514611fdd57600182611f439190613255565b9150600a85611f5291906133eb565b6030611f5e91906131ce565b60f81b818381518110611f9a577f4e487b7100000000000000000000000000000000000000000000000000000000600052603260045260246000fd5b60200101907effffffffffffffffffffffffffffffffffffffffffffffffffffffffffffff1916908160001a905350600a85611fd69190613224565b9450611f2e565b8093505050505b919050565b600073ffffffffffffffffffffffffffffffffffffffff168273ffffffffffffffffffffffffffffffffffffffff161415612059576040517f08c379a000000000000000000000000000000000000000000000000000000000815260040161205090612fc9565b60405180910390fd5b61206281610e6f565b156120a2576040517f08c379a000000000000000000000000000000000000000000000000000000000815260040161209990612ec9565b60405180910390fd5b6120ae60008383611866565b6001600360008473ffffffffffffffffffffffffffffffffffffffff1673ffffffffffffffffffffffffffffffffffffffff16815260200190815260200160002060008282546120fe91906131ce565b92505081905550816002600083815260200190815260200160002060006101000a81548173ffffffffffffffffffffffffffffffffffffffff021916908373ffffffffffffffffffffffffffffffffffffffff160217905550808273ffffffffffffffffffffffffffffffffffffffff16600073ffffffffffffffffffffffffffffffffffffffff167fddf252ad1be2c89b69c2b068fc378daa952ba7f163c4a11628f55a4df523b3ef60405160405180910390a46121bf60008383611876565b5050565b505050565b6008805490506009600083815260200190815260200160002081905550600881908060018154018082558091505060019003906000526020600020016000909190919091505550565b6000600161221e84610936565b6122289190613255565b905060006007600084815260200190815260200160002054905081811461230d576000600660008673ffffffffffffffffffffffffffffffffffffffff1673ffffffffffffffffffffffffffffffffffffffff168152602001908152602001600020600084815260200190815260200160002054905080600660008773ffffffffffffffffffffffffffffffffffffffff1673ffffffffffffffffffffffffffffffffffffffff168152602001908152602001600020600084815260200190815260200160002081905550816007600083815260200190815260200160002081905550505b6007600084815260200190815260200160002060009055600660008573ffffffffffffffffffffffffffffffffffffffff1673ffffffffffffffffffffffffffffffffffffffff16815260200190815260200160002060008381526020019081526020016000206000905550505050565b600060016008805490506123929190613255565b90506000600960008481526020019081526020016000205490506000600883815481106123e8577f4e487b7100000000000000000000000000000000000000000000000000000000600052603260045260246000fd5b906000526020600020015490508060088381548110612430577f4e487b7100000000000000000000000000000000000000000000000000000000600052603260045260246000fd5b9060005260206000200181905550816009600083815260200190815260200160002081905550600960008581526020019081526020016000206000905560088054806124a5577f4e487b7100000000000000000000000000000000000000000000000000000000600052603160045260246000fd5b6001900381819060005260206000200160009055905550505050565b60006124cc83610936565b905081600660008573ffffffffffffffffffffffffffffffffffffffff1673ffffffffffffffffffffffffffffffffffffffff168152602001908152602001600020600083815260200190815260200160002081905550806007600084815260200190815260200160002081905550505050565b82805461254c9061333f565b90600052602060002090601f01602090048101928261256e57600085556125b5565b82601f1061258757805160ff19168380011785556125b5565b828001600101855582156125b5579182015b828111156125b4578251825591602001919060010190612599565b5b5090506125c29190612606565b5090565b5080546125d29061333f565b6000825580601f106125e45750612603565b601f0160209004906000526020600020908101906126029190612606565b5b50565b5b8082111561261f576000816000905550600101612607565b5090565b600061263661263184613129565b613104565b90508281526020810184848401111561264e57600080fd5b6126598482856132fd565b509392505050565b600061267461266f8461315a565b613104565b90508281526020810184848401111561268c57600080fd5b6126978482856132fd565b509392505050565b6000813590506126ae81613acc565b92915050565b6000813590506126c381613ae3565b92915050565b6000813590506126d881613afa565b92915050565b6000815190506126ed81613afa565b92915050565b600082601f83011261270457600080fd5b8135612714848260208601612623565b91505092915050565b600082601f83011261272e57600080fd5b813561273e848260208601612661565b91505092915050565b60008135905061275681613b11565b92915050565b60006020828403121561276e57600080fd5b600061277c8482850161269f565b91505092915050565b6000806040838503121561279857600080fd5b60006127a68582860161269f565b92505060206127b78582860161269f565b9150509250929050565b6000806000606084860312156127d657600080fd5b60006127e48682870161269f565b93505060206127f58682870161269f565b925050604061280686828701612747565b9150509250925092565b6000806000806080858703121561282657600080fd5b60006128348782880161269f565b94505060206128458782880161269f565b935050604061285687828801612747565b925050606085013567ffffffffffffffff81111561287357600080fd5b61287f878288016126f3565b91505092959194509250565b6000806040838503121561289e57600080fd5b60006128ac8582860161269f565b92505060206128bd858286016126b4565b9150509250929050565b600080604083850312156128da57600080fd5b60006128e88582860161269f565b925050602083013567ffffffffffffffff81111561290557600080fd5b6129118582860161271d565b9150509250929050565b6000806040838503121561292e57600080fd5b600061293c8582860161269f565b925050602061294d85828601612747565b9150509250929050565b60006020828403121561296957600080fd5b6000612977848285016126c9565b91505092915050565b60006020828403121561299257600080fd5b60006129a0848285016126de565b91505092915050565b6000602082840312156129bb57600080fd5b60006129c984828501612747565b91505092915050565b6129db81613289565b82525050565b6129ea8161329b565b82525050565b60006129fb8261318b565b612a0581856131a1565b9350612a1581856020860161330c565b612a1e816134d8565b840191505092915050565b6000612a3482613196565b612a3e81856131b2565b9350612a4e81856020860161330c565b612a57816134d8565b840191505092915050565b6000612a6d82613196565b612a7781856131c3565b9350612a8781856020860161330c565b80840191505092915050565b6000612aa0602b836131b2565b9150612aab826134e9565b604082019050919050565b6000612ac36032836131b2565b9150612ace82613538565b604082019050919050565b6000612ae66026836131b2565b9150612af182613587565b604082019050919050565b6000612b096025836131b2565b9150612b14826135d6565b604082019050919050565b6000612b2c601c836131b2565b9150612b3782613625565b602082019050919050565b6000612b4f6024836131b2565b9150612b5a8261364e565b604082019050919050565b6000612b726019836131b2565b9150612b7d8261369d565b602082019050919050565b6000612b95602c836131b2565b9150612ba0826136c6565b604082019050919050565b6000612bb86038836131b2565b9150612bc382613715565b604082019050919050565b6000612bdb602a836131b2565b9150612be682613764565b604082019050919050565b6000612bfe6029836131b2565b9150612c09826137b3565b604082019050919050565b6000612c21602e836131b2565b9150612c2c82613802565b604082019050919050565b6000612c446020836131b2565b9150612c4f82613851565b602082019050919050565b6000612c676031836131b2565b9150612c728261387a565b604082019050919050565b6000612c8a602c836131b2565b9150612c95826138c9565b604082019050919050565b6000612cad6020836131b2565b9150612cb882613918565b602082019050919050565b6000612cd0602f836131b2565b9150612cdb82613941565b604082019050919050565b6000612cf36021836131b2565b9150612cfe82613990565b604082019050919050565b6000612d166031836131b2565b9150612d21826139df565b604082019050919050565b6000612d39602c836131b2565b9150612d4482613a2e565b604082019050919050565b6000612d5c6030836131b2565b9150612d6782613a7d565b604082019050919050565b612d7b816132f3565b82525050565b6000612d8d8285612a62565b9150612d998284612a62565b91508190509392505050565b6000602082019050612dba60008301846129d2565b92915050565b6000608082019050612dd560008301876129d2565b612de260208301866129d2565b612def6040830185612d72565b8181036060830152612e0181846129f0565b905095945050505050565b6000602082019050612e2160008301846129e1565b92915050565b60006020820190508181036000830152612e418184612a29565b905092915050565b60006020820190508181036000830152612e6281612a93565b9050919050565b60006020820190508181036000830152612e8281612ab6565b9050919050565b60006020820190508181036000830152612ea281612ad9565b9050919050565b60006020820190508181036000830152612ec281612afc565b9050919050565b60006020820190508181036000830152612ee281612b1f565b9050919050565b60006020820190508181036000830152612f0281612b42565b9050919050565b60006020820190508181036000830152612f2281612b65565b9050919050565b60006020820190508181036000830152612f4281612b88565b9050919050565b60006020820190508181036000830152612f6281612bab565b9050919050565b60006020820190508181036000830152612f8281612bce565b9050919050565b60006020820190508181036000830152612fa281612bf1565b9050919050565b60006020820190508181036000830152612fc281612c14565b9050919050565b60006020820190508181036000830152612fe281612c37565b9050919050565b6000602082019050818103600083015261300281612c5a565b9050919050565b6000602082019050818103600083015261302281612c7d565b9050919050565b6000602082019050818103600083015261304281612ca0565b9050919050565b6000602082019050818103600083015261306281612cc3565b9050919050565b6000602082019050818103600083015261308281612ce6565b9050919050565b600060208201905081810360008301526130a281612d09565b9050919050565b600060208201905081810360008301526130c281612d2c565b9050919050565b600060208201905081810360008301526130e281612d4f565b9050919050565b60006020820190506130fe6000830184612d72565b92915050565b600061310e61311f565b905061311a8282613371565b919050565b6000604051905090565b600067ffffffffffffffff821115613144576131436134a9565b5b61314d826134d8565b9050602081019050919050565b600067ffffffffffffffff821115613175576131746134a9565b5b61317e826134d8565b9050602081019050919050565b600081519050919050565b600081519050919050565b600082825260208201905092915050565b600082825260208201905092915050565b600081905092915050565b60006131d9826132f3565b91506131e4836132f3565b9250827fffffffffffffffffffffffffffffffffffffffffffffffffffffffffffffffff038211156132195761321861341c565b5b828201905092915050565b600061322f826132f3565b915061323a836132f3565b92508261324a5761324961344b565b5b828204905092915050565b6000613260826132f3565b915061326b836132f3565b92508282101561327e5761327d61341c565b5b828203905092915050565b6000613294826132d3565b9050919050565b60008115159050919050565b60007fffffffff0000000000000000000000000000000000000000000000000000000082169050919050565b600073ffffffffffffffffffffffffffffffffffffffff82169050919050565b6000819050919050565b82818337600083830152505050565b60005b8381101561332a57808201518184015260208101905061330f565b83811115613339576000848401525b50505050565b6000600282049050600182168061335757607f821691505b6020821081141561336b5761336a61347a565b5b50919050565b61337a826134d8565b810181811067ffffffffffffffff82111715613399576133986134a9565b5b80604052505050565b60006133ad826132f3565b91507fffffffffffffffffffffffffffffffffffffffffffffffffffffffffffffffff8214156133e0576133df61341c565b5b600182019050919050565b60006133f6826132f3565b9150613401836132f3565b9250826134115761341061344b565b5b828206905092915050565b7f4e487b7100000000000000000000000000000000000000000000000000000000600052601160045260246000fd5b7f4e487b7100000000000000000000000000000000000000000000000000000000600052601260045260246000fd5b7f4e487b7100000000000000000000000000000000000000000000000000000000600052602260045260246000fd5b7f4e487b7100000000000000000000000000000000000000000000000000000000600052604160045260246000fd5b6000601f19601f8301169050919050565b7f455243373231456e756d657261626c653a206f776e657220696e646578206f7560008201527f74206f6620626f756e6473000000000000000000000000000000000000000000602082015250565b7f4552433732313a207472616e7366657220746f206e6f6e20455243373231526560008201527f63656976657220696d706c656d656e7465720000000000000000000000000000602082015250565b7f4f776e61626c653a206e6577206f776e657220697320746865207a65726f206160008201527f6464726573730000000000000000000000000000000000000000000000000000602082015250565b7f4552433732313a207472616e736665722066726f6d20696e636f72726563742060008201527f6f776e6572000000000000000000000000000000000000000000000000000000602082015250565b7f4552433732313a20746f6b656e20616c7265616479206d696e74656400000000600082015250565b7f4552433732313a207472616e7366657220746f20746865207a65726f2061646460008201527f7265737300000000000000000000000000000000000000000000000000000000602082015250565b7f4552433732313a20617070726f766520746f2063616c6c657200000000000000600082015250565b7f4552433732313a206f70657261746f7220717565727920666f72206e6f6e657860008201527f697374656e7420746f6b656e0000000000000000000000000000000000000000602082015250565b7f4552433732313a20617070726f76652063616c6c6572206973206e6f74206f7760008201527f6e6572206e6f7220617070726f76656420666f7220616c6c0000000000000000602082015250565b7f4552433732313a2062616c616e636520717565727920666f7220746865207a6560008201527f726f206164647265737300000000000000000000000000000000000000000000602082015250565b7f4552433732313a206f776e657220717565727920666f72206e6f6e657869737460008201527f656e7420746f6b656e0000000000000000000000000000000000000000000000602082015250565b7f45524337323155524953746f726167653a2055524920736574206f66206e6f6e60008201527f6578697374656e7420746f6b656e000000000000000000000000000000000000602082015250565b7f4552433732313a206d696e7420746f20746865207a65726f2061646472657373600082015250565b7f45524337323155524953746f726167653a2055524920717565727920666f722060008201527f6e6f6e6578697374656e7420746f6b656e000000000000000000000000000000602082015250565b7f4552433732313a20617070726f76656420717565727920666f72206e6f6e657860008201527f697374656e7420746f6b656e0000000000000000000000000000000000000000602082015250565b7f4f776e61626c653a2063616c6c6572206973206e6f7420746865206f776e6572600082015250565b7f4552433732314d657461646174613a2055524920717565727920666f72206e6f60008201527f6e6578697374656e7420746f6b656e0000000000000000000000000000000000602082015250565b7f4552433732313a20617070726f76616c20746f2063757272656e74206f776e6560008201527f7200000000000000000000000000000000000000000000000000000000000000602082015250565b7f4552433732313a207472616e736665722063616c6c6572206973206e6f74206f60008201527f776e6572206e6f7220617070726f766564000000000000000000000000000000602082015250565b7f455243373231456e756d657261626c653a20676c6f62616c20696e646578206f60008201527f7574206f6620626f756e64730000000000000000000000000000000000000000602082015250565b7f4552433732314275726e61626c653a2063616c6c6572206973206e6f74206f7760008201527f6e6572206e6f7220617070726f76656400000000000000000000000000000000602082015250565b613ad581613289565b8114613ae057600080fd5b50565b613aec8161329b565b8114613af757600080fd5b50565b613b03816132a7565b8114613b0e57600080fd5b50565b613b1a816132f3565b8114613b2557600080fd5b5056fea26469706673582212207532ed6301296dbac9c039ffe5af4533c9e5bc4609a171803b82df5ca21b530764736f6c63430008040033",
  "linkReferences": {},
  "deployedLinkReferences": {}
}