{
  "_format": "hh-sol-artifact-1",
  "contractName": "NFTLand",
  "sourceName": "contracts/nftland.sol",
  "abi": [
    {
      "inputs": [
        {
          "internalType": "address",
          "name": "_currencyTokenAddress",
          "type": "address"
        },
        {
          "internalType": "address",
          "name": "_itemTokenAddress",
          "type": "address"
        }
      ],
      "stateMutability": "nonpayable",
      "type": "constructor"
    },
    {
      "inputs": [
        {
          "internalType": "uint256",
          "name": "tokenId",
          "type": "uint256"
        }
      ],
      "name": "buy",
      "outputs": [],
      "stateMutability": "nonpayable",
      "type": "function"
    },
    {
      "inputs": [
        {
          "internalType": "bytes",
          "name": "_bytes",
          "type": "bytes"
        }
      ],
      "name": "bytesToUint",
      "outputs": [
        {
          "internalType": "uint256",
          "name": "",
          "type": "uint256"
        }
      ],
      "stateMutability": "pure",
      "type": "function"
    },
    {
      "inputs": [
        {
          "internalType": "uint256",
          "name": "tokenId",
          "type": "uint256"
        }
      ],
      "name": "cancel",
      "outputs": [],
      "stateMutability": "nonpayable",
      "type": "function"
    },
    {
      "inputs": [],
      "name": "getAllTokens",
      "outputs": [
        {
          "internalType": "string[]",
          "name": "",
          "type": "string[]"
        },
        {
          "internalType": "uint256[]",
          "name": "",
          "type": "uint256[]"
        }
      ],
      "stateMutability": "view",
      "type": "function"
    },
    {
      "inputs": [
        {
          "internalType": "address",
          "name": "",
          "type": "address"
        },
        {
          "internalType": "address",
          "name": "",
          "type": "address"
        },
        {
          "internalType": "uint256",
          "name": "tokenId",
          "type": "uint256"
        },
        {
          "internalType": "bytes",
          "name": "data",
          "type": "bytes"
        }
      ],
      "name": "onERC721Received",
      "outputs": [
        {
          "internalType": "bytes4",
          "name": "",
          "type": "bytes4"
        }
      ],
      "stateMutability": "nonpayable",
      "type": "function"
    },
    {
      "inputs": [
        {
          "internalType": "uint256",
          "name": "",
          "type": "uint256"
        }
      ],
      "name": "price",
      "outputs": [
        {
          "internalType": "uint256",
          "name": "",
          "type": "uint256"
        }
      ],
      "stateMutability": "view",
      "type": "function"
    }
  ],
  "bytecode": "0x60806040523480156200001157600080fd5b506040516200173438038062001734833981810160405281019062000037919062000159565b816000806101000a81548173ffffffffffffffffffffffffffffffffffffffff021916908373ffffffffffffffffffffffffffffffffffffffff16021790555080600160006101000a81548173ffffffffffffffffffffffffffffffffffffffff021916908373ffffffffffffffffffffffffffffffffffffffff16021790555080600260006101000a81548173ffffffffffffffffffffffffffffffffffffffff021916908373ffffffffffffffffffffffffffffffffffffffff16021790555080600360006101000a81548173ffffffffffffffffffffffffffffffffffffffff021916908373ffffffffffffffffffffffffffffffffffffffff1602179055505050620001e8565b6000815190506200015381620001ce565b92915050565b600080604083850312156200016d57600080fd5b60006200017d8582860162000142565b9250506020620001908582860162000142565b9150509250929050565b6000620001a782620001ae565b9050919050565b600073ffffffffffffffffffffffffffffffffffffffff82169050919050565b620001d9816200019a565b8114620001e557600080fd5b50565b61153c80620001f86000396000f3fe608060405234801561001057600080fd5b50600436106100625760003560e01c806302d06d0514610067578063150b7a021461009757806326a49e37146100c75780632a5c792a146100f757806340e58ee514610116578063d96a094a14610132575b600080fd5b610081600480360381019061007c9190610bf3565b61014e565b60405161008e9190610f30565b60405180910390f35b6100b160048036038101906100ac9190610b4f565b61020c565b6040516100be9190610ef5565b60405180910390f35b6100e160048036038101906100dc9190610c75565b610292565b6040516100ee9190610f30565b60405180910390f35b6100ff6102aa565b60405161010d929190610ebe565b60405180910390f35b610130600480360381019061012b9190610c75565b61065f565b005b61014c60048036038101906101479190610c75565b6107c7565b005b60008060005b83518110156102025760018161016a9190611071565b84516101769190611292565b60086101829190611238565b600261018e919061111a565b8482815181106101c7577f4e487b7100000000000000000000000000000000000000000000000000000000600052603260045260246000fd5b602001015160f81c60f81b60f81c60ff166101e29190611238565b826101ed9190611071565b915080806101fa906113ad565b915050610154565b5080915050919050565b6000336004600085815260200190815260200160002060006101000a81548173ffffffffffffffffffffffffffffffffffffffff021916908373ffffffffffffffffffffffffffffffffffffffff1602179055506102698261014e565b600560008581526020019081526020016000208190555063150b7a0260e01b9050949350505050565b60056020528060005260406000206000915090505481565b6060806000600260009054906101000a900473ffffffffffffffffffffffffffffffffffffffff1673ffffffffffffffffffffffffffffffffffffffff166318160ddd6040518163ffffffff1660e01b815260040160206040518083038186803b15801561031757600080fd5b505afa15801561032b573d6000803e3d6000fd5b505050506040513d601f19601f8201168201806040525081019061034f9190610c9e565b905060008167ffffffffffffffff811115610393577f4e487b7100000000000000000000000000000000000000000000000000000000600052604160045260246000fd5b6040519080825280602002602001820160405280156103c657816020015b60608152602001906001900390816103b15790505b50905060008267ffffffffffffffff81111561040b577f4e487b7100000000000000000000000000000000000000000000000000000000600052604160045260246000fd5b6040519080825280602002602001820160405280156104395781602001602082028036833780820191505090505b50905060005b8381101561065157600360009054906101000a900473ffffffffffffffffffffffffffffffffffffffff1673ffffffffffffffffffffffffffffffffffffffff1663c87b56dd600260009054906101000a900473ffffffffffffffffffffffffffffffffffffffff1673ffffffffffffffffffffffffffffffffffffffff16634f6ccce7846040518263ffffffff1660e01b81526004016104e09190610f30565b60206040518083038186803b1580156104f857600080fd5b505afa15801561050c573d6000803e3d6000fd5b505050506040513d601f19601f820116820180604052508101906105309190610c9e565b6040518263ffffffff1660e01b815260040161054c9190610f30565b60006040518083038186803b15801561056457600080fd5b505afa158015610578573d6000803e3d6000fd5b505050506040513d6000823e3d601f19601f820116820180604052508101906105a19190610c34565b8382815181106105da577f4e487b7100000000000000000000000000000000000000000000000000000000600052603260045260246000fd5b60200260200101819052506005600082815260200190815260200160002054828281518110610632577f4e487b7100000000000000000000000000000000000000000000000000000000600052603260045260246000fd5b6020026020010181815250508080610649906113ad565b91505061043f565b508181945094505050509091565b6004600082815260200190815260200160002060009054906101000a900473ffffffffffffffffffffffffffffffffffffffff1673ffffffffffffffffffffffffffffffffffffffff163373ffffffffffffffffffffffffffffffffffffffff1614610700576040517f08c379a00000000000000000000000000000000000000000000000000000000081526004016106f790610f10565b60405180910390fd5b600160009054906101000a900473ffffffffffffffffffffffffffffffffffffffff1673ffffffffffffffffffffffffffffffffffffffff166323b872dd306004600085815260200190815260200160002060009054906101000a900473ffffffffffffffffffffffffffffffffffffffff16846040518463ffffffff1660e01b815260040161079293929190610e5e565b600060405180830381600087803b1580156107ac57600080fd5b505af11580156107c0573d6000803e3d6000fd5b5050505050565b60008054906101000a900473ffffffffffffffffffffffffffffffffffffffff1673ffffffffffffffffffffffffffffffffffffffff1663095ea7b33060056000858152602001908152602001600020546040518363ffffffff1660e01b8152600401610835929190610e95565b602060405180830381600087803b15801561084f57600080fd5b505af1158015610863573d6000803e3d6000fd5b505050506040513d601f19601f820116820180604052508101906108879190610bca565b5060008054906101000a900473ffffffffffffffffffffffffffffffffffffffff1673ffffffffffffffffffffffffffffffffffffffff166323b872dd336004600085815260200190815260200160002060009054906101000a900473ffffffffffffffffffffffffffffffffffffffff1660056000868152602001908152602001600020546040518463ffffffff1660e01b815260040161092b93929190610e5e565b602060405180830381600087803b15801561094557600080fd5b505af1158015610959573d6000803e3d6000fd5b505050506040513d601f19601f8201168201806040525081019061097d9190610bca565b50600160009054906101000a900473ffffffffffffffffffffffffffffffffffffffff1673ffffffffffffffffffffffffffffffffffffffff166323b872dd3033846040518463ffffffff1660e01b81526004016109dd93929190610e5e565b600060405180830381600087803b1580156109f757600080fd5b505af1158015610a0b573d6000803e3d6000fd5b505050506000600560008381526020019081526020016000208190555050565b6000610a3e610a3984610f70565b610f4b565b905082815260208101848484011115610a5657600080fd5b610a6184828561133a565b509392505050565b6000610a7c610a7784610fa1565b610f4b565b905082815260208101848484011115610a9457600080fd5b610a9f848285611349565b509392505050565b600081359050610ab6816114c1565b92915050565b600081519050610acb816114d8565b92915050565b600082601f830112610ae257600080fd5b8135610af2848260208601610a2b565b91505092915050565b600082601f830112610b0c57600080fd5b8151610b1c848260208601610a69565b91505092915050565b600081359050610b34816114ef565b92915050565b600081519050610b49816114ef565b92915050565b60008060008060808587031215610b6557600080fd5b6000610b7387828801610aa7565b9450506020610b8487828801610aa7565b9350506040610b9587828801610b25565b925050606085013567ffffffffffffffff811115610bb257600080fd5b610bbe87828801610ad1565b91505092959194509250565b600060208284031215610bdc57600080fd5b6000610bea84828501610abc565b91505092915050565b600060208284031215610c0557600080fd5b600082013567ffffffffffffffff811115610c1f57600080fd5b610c2b84828501610ad1565b91505092915050565b600060208284031215610c4657600080fd5b600082015167ffffffffffffffff811115610c6057600080fd5b610c6c84828501610afb565b91505092915050565b600060208284031215610c8757600080fd5b6000610c9584828501610b25565b91505092915050565b600060208284031215610cb057600080fd5b6000610cbe84828501610b3a565b91505092915050565b6000610cd38383610de4565b905092915050565b6000610ce78383610e40565b60208301905092915050565b610cfc816112c6565b82525050565b6000610d0d82610ff2565b610d17818561102d565b935083602082028501610d2985610fd2565b8060005b85811015610d655784840389528151610d468582610cc7565b9450610d5183611013565b925060208a01995050600181019050610d2d565b50829750879550505050505092915050565b6000610d8282610ffd565b610d8c818561103e565b9350610d9783610fe2565b8060005b83811015610dc8578151610daf8882610cdb565b9750610dba83611020565b925050600181019050610d9b565b5085935050505092915050565b610dde816112e4565b82525050565b6000610def82611008565b610df9818561104f565b9350610e09818560208601611349565b610e1281611454565b840191505092915050565b6000610e2a602683611060565b9150610e3582611472565b604082019050919050565b610e4981611330565b82525050565b610e5881611330565b82525050565b6000606082019050610e736000830186610cf3565b610e806020830185610cf3565b610e8d6040830184610e4f565b949350505050565b6000604082019050610eaa6000830185610cf3565b610eb76020830184610e4f565b9392505050565b60006040820190508181036000830152610ed88185610d02565b90508181036020830152610eec8184610d77565b90509392505050565b6000602082019050610f0a6000830184610dd5565b92915050565b60006020820190508181036000830152610f2981610e1d565b9050919050565b6000602082019050610f456000830184610e4f565b92915050565b6000610f55610f66565b9050610f61828261137c565b919050565b6000604051905090565b600067ffffffffffffffff821115610f8b57610f8a611425565b5b610f9482611454565b9050602081019050919050565b600067ffffffffffffffff821115610fbc57610fbb611425565b5b610fc582611454565b9050602081019050919050565b6000819050602082019050919050565b6000819050602082019050919050565b600081519050919050565b600081519050919050565b600081519050919050565b6000602082019050919050565b6000602082019050919050565b600082825260208201905092915050565b600082825260208201905092915050565b600082825260208201905092915050565b600082825260208201905092915050565b600061107c82611330565b915061108783611330565b9250827fffffffffffffffffffffffffffffffffffffffffffffffffffffffffffffffff038211156110bc576110bb6113f6565b5b828201905092915050565b6000808291508390505b6001851115611111578086048111156110ed576110ec6113f6565b5b60018516156110fc5780820291505b808102905061110a85611465565b94506110d1565b94509492505050565b600061112582611330565b915061113083611330565b925061115d7fffffffffffffffffffffffffffffffffffffffffffffffffffffffffffffffff8484611165565b905092915050565b6000826111755760019050611231565b816111835760009050611231565b816001811461119957600281146111a3576111d2565b6001915050611231565b60ff8411156111b5576111b46113f6565b5b8360020a9150848211156111cc576111cb6113f6565b5b50611231565b5060208310610133831016604e8410600b84101617156112075782820a905083811115611202576112016113f6565b5b611231565b61121484848460016110c7565b9250905081840481111561122b5761122a6113f6565b5b81810290505b9392505050565b600061124382611330565b915061124e83611330565b9250817fffffffffffffffffffffffffffffffffffffffffffffffffffffffffffffffff0483118215151615611287576112866113f6565b5b828202905092915050565b600061129d82611330565b91506112a883611330565b9250828210156112bb576112ba6113f6565b5b828203905092915050565b60006112d182611310565b9050919050565b60008115159050919050565b60007fffffffff0000000000000000000000000000000000000000000000000000000082169050919050565b600073ffffffffffffffffffffffffffffffffffffffff82169050919050565b6000819050919050565b82818337600083830152505050565b60005b8381101561136757808201518184015260208101905061134c565b83811115611376576000848401525b50505050565b61138582611454565b810181811067ffffffffffffffff821117156113a4576113a3611425565b5b80604052505050565b60006113b882611330565b91507fffffffffffffffffffffffffffffffffffffffffffffffffffffffffffffffff8214156113eb576113ea6113f6565b5b600182019050919050565b7f4e487b7100000000000000000000000000000000000000000000000000000000600052601160045260246000fd5b7f4e487b7100000000000000000000000000000000000000000000000000000000600052604160045260246000fd5b6000601f19601f8301169050919050565b60008160011c9050919050565b7f54726164652063616e2062652063616e63656c6c6564206f6e6c79206279207060008201527f6f737465722e0000000000000000000000000000000000000000000000000000602082015250565b6114ca816112c6565b81146114d557600080fd5b50565b6114e1816112d8565b81146114ec57600080fd5b50565b6114f881611330565b811461150357600080fd5b5056fea2646970667358221220d53bf44028ace83bd44c5aa029abd39200c15349c67adde13d567563803ca02464736f6c63430008040033",
  "linkReferences": {},
  "deployedLinkReferences": {}
}